:0C0000001BC0FECFFDCFFCCFFBCFFACF22
:10000C00F9CFF8CFF7CFF6CFF5CFF4CFF3CFF2CFC0
:10001C00F1CFF0CFEFCFEECFEDCF1027E803640098
:10002C000A0001000010000110000100F894EE27F6
:10003C00ECBBF1E0FBBFEBBFE5BFF8E1F1BDE1BD0F
:10004C008DE0A2E0BB27ED938A95E9F780E094E080
:10005C00A0E6ED930197E9F7EFE5EDBFE4E0EEBF25
:10006C00C0E6D1E0C6C0E0E0E8BBE7BBE5BBE4BB63
:10007C00E2BBECE0E1BBE0E0E3BFE2BFEFBDEEBD15
:10008C00EDBDECBDE7BDE6BDEBBDEABDE9BDE8BD30
:10009C00E2BDE5BDE4BDE3BDE5BFE9BFEBB9E8E119
:1000AC00EAB9E6E8E0BDE0E0E0BDE7E1E9B9E0E8A7
:1000BC00E8B9E0E0E0BFE0E6E7B9E3E8E6B90895C7
:1000CC00E88103D1E066E7B989E18A95F1F7E6B1F9
:1000DC00FCD0E064E6B9E6B1F8D0E071E1F3E6B14A
:1000EC00F4D0E061E6B9E5B1EEC020D126E130E014
:1000FC00EED0E870F070389719F426E130E002C0C9
:10010C002EE130E09398E2E0F0E0E5D089E993E06D
:10011C000197F1F700E010E0021713070CF062C032
:10012C00939A0630E0E01E0754F4D1D0E072F070E0
:10013C00B09719F4D3D0D5D001C0D7D022C00E308F
:10014C00E0E01E074CF4D6D01196D7D019F4C6D0E7
:10015C00C8D001C0CAD015C00631E0E01E074CF46F
:10016C00C9D01296CAD019F4B9D0BBD001C0BDD039
:10017C0008C0C0D01396C1D019F4B0D0B2D001C011
:10018C00B4D00630E0E01E072CF4A1D0BBD0B2D026
:10019C00EC9323C00E30E0E01E0744F4ABD0119674
:1001AC00B4D0AC81BD811196EC9317C00631E0E060
:1001BC001E0744F49FD01296A8D0AC81BD81129634
:1001CC00EC930BC00E31E0E01E073CF493D0139679
:1001DC009CD0AC81BD811396EC93939886D00F5F25
:1001EC001F4F9ACF939AE4E6F0E075D0A4D02696F0
:1001FC00089539DF929AE4EFF1E06DD092985BD0DC
:10020C00E134E9F7E5E0EA935AD055D0E03091F4C7
:10021C0052D0E09364014FD0E09365014CD0E09351
:10022C00660149D0E0936701E4E6F1E0FA93EA93C2
:10023C005CDF3FC0E13019F43ED0E4BB3AC0E230A1
:10024C0019F439D0E7BB35C0E33019F434D0E8BB2E
:10025C0030C0E43011F4E6B32AC0E53019F4E0E024
:10026C0057D025C0E63019F4E1E052D020C0E73079
:10027C0019F4E2E04DD01BC0E83019F4E3E048D0AB
:10028C0016C0E93019F4E4E043D011C0EA3019F497
:10029C00E5E03ED00CC0EB3011F4E3B308C0EC3019
:1002AC0019F409D0E5BB05C0E13419F4E5E0EA9393
:1002BC0006D0ABCFFFCF5F9BFECFECB108955D9B1B
:1002CC00FECFE881ECB921960895F0E00895AC8159
:1002DC00BD81EC91FACFFA93EA931CC0E1E0F0E017
:1002EC00FACF8BE78A95F1F7089586EF93E00197A3
:1002FC00F1F70895AC81BD810895EC91E6DFE078CB
:10030C00E0380895EE0FFF1F0895EC91DEDFFACF71
:10031C00EA93D6CEE991F991309639F083E397E0E0
:10032C000197F1F7A8953197C9F708953A932A9355
:10033C001A930A9308953B812A81198108810895A3
:00000001FF
